{
  "_format": "hh-sol-artifact-1",
  "contractName": "GameM",
  "sourceName": "contracts/GameM.sol",
  "abi": [
    {
      "inputs": [],
      "stateMutability": "nonpayable",
      "type": "constructor"
    },
    {
      "anonymous": false,
      "inputs": [
        {
          "indexed": true,
          "internalType": "address",
          "name": "user",
          "type": "address"
        },
        {
          "indexed": false,
          "internalType": "uint256",
          "name": "crackNumber",
          "type": "uint256"
        },
        {
          "indexed": false,
          "internalType": "uint256",
          "name": "reward",
          "type": "uint256"
        },
        {
          "indexed": false,
          "internalType": "bool",
          "name": "jackpot",
          "type": "bool"
        },
        {
          "indexed": false,
          "internalType": "bool",
          "name": "milestone",
          "type": "bool"
        },
        {
          "indexed": false,
          "internalType": "uint8",
          "name": "streakLevel",
          "type": "uint8"
        }
      ],
      "name": "EggCracked",
      "type": "event"
    },
    {
      "anonymous": false,
      "inputs": [
        {
          "indexed": true,
          "internalType": "address",
          "name": "user",
          "type": "address"
        },
        {
          "indexed": false,
          "internalType": "uint256",
          "name": "amount",
          "type": "uint256"
        }
      ],
      "name": "JackpotWon",
      "type": "event"
    },
    {
      "anonymous": false,
      "inputs": [
        {
          "indexed": true,
          "internalType": "address",
          "name": "user",
          "type": "address"
        },
        {
          "indexed": false,
          "internalType": "uint256",
          "name": "amount",
          "type": "uint256"
        }
      ],
      "name": "RewardClaimed",
      "type": "event"
    },
    {
      "anonymous": false,
      "inputs": [
        {
          "indexed": true,
          "internalType": "address",
          "name": "user",
          "type": "address"
        },
        {
          "indexed": false,
          "internalType": "uint256",
          "name": "streak",
          "type": "uint256"
        }
      ],
      "name": "StreakUpdated",
      "type": "event"
    },
    {
      "inputs": [],
      "name": "BASE_REWARD",
      "outputs": [
        {
          "internalType": "uint256",
          "name": "",
          "type": "uint256"
        }
      ],
      "stateMutability": "view",
      "type": "function"
    },
    {
      "inputs": [],
      "name": "CLICKS_TO_CRACK",
      "outputs": [
        {
          "internalType": "uint256",
          "name": "",
          "type": "uint256"
        }
      ],
      "stateMutability": "view",
      "type": "function"
    },
    {
      "inputs": [],
      "name": "DAILY_BONUS",
      "outputs": [
        {
          "internalType": "uint256",
          "name": "",
          "type": "uint256"
        }
      ],
      "stateMutability": "view",
      "type": "function"
    },
    {
      "inputs": [],
      "name": "JACKPOT_BONUS",
      "outputs": [
        {
          "internalType": "uint256",
          "name": "",
          "type": "uint256"
        }
      ],
      "stateMutability": "view",
      "type": "function"
    },
    {
      "inputs": [],
      "name": "MILESTONE_BONUS",
      "outputs": [
        {
          "internalType": "uint256",
          "name": "",
          "type": "uint256"
        }
      ],
      "stateMutability": "view",
      "type": "function"
    },
    {
      "inputs": [],
      "name": "STREAK_BONUS",
      "outputs": [
        {
          "internalType": "uint256",
          "name": "",
          "type": "uint256"
        }
      ],
      "stateMutability": "view",
      "type": "function"
    },
    {
      "inputs": [],
      "name": "claimRewards",
      "outputs": [],
      "stateMutability": "nonpayable",
      "type": "function"
    },
    {
      "inputs": [],
      "name": "getLeaderboard",
      "outputs": [
        {
          "internalType": "address[]",
          "name": "",
          "type": "address[]"
        }
      ],
      "stateMutability": "view",
      "type": "function"
    },
    {
      "inputs": [
        {
          "internalType": "address",
          "name": "user",
          "type": "address"
        }
      ],
      "name": "getLeaderboardStats",
      "outputs": [
        {
          "internalType": "uint256",
          "name": "cracks",
          "type": "uint256"
        },
        {
          "internalType": "uint256",
          "name": "earned",
          "type": "uint256"
        }
      ],
      "stateMutability": "view",
      "type": "function"
    },
    {
      "inputs": [
        {
          "internalType": "address",
          "name": "user",
          "type": "address"
        }
      ],
      "name": "getUserStats",
      "outputs": [
        {
          "internalType": "uint256",
          "name": "cracks",
          "type": "uint256"
        },
        {
          "internalType": "uint256",
          "name": "pending",
          "type": "uint256"
        },
        {
          "internalType": "uint256",
          "name": "streak",
          "type": "uint256"
        },
        {
          "internalType": "uint256",
          "name": "earned",
          "type": "uint256"
        },
        {
          "internalType": "uint256",
          "name": "egcBalance",
          "type": "uint256"
        }
      ],
      "stateMutability": "view",
      "type": "function"
    },
    {
      "inputs": [],
      "name": "jackpotChance",
      "outputs": [
        {
          "internalType": "uint256",
          "name": "",
          "type": "uint256"
        }
      ],
      "stateMutability": "view",
      "type": "function"
    },
    {
      "inputs": [
        {
          "internalType": "address",
          "name": "",
          "type": "address"
        }
      ],
      "name": "lastCrackDay",
      "outputs": [
        {
          "internalType": "uint256",
          "name": "",
          "type": "uint256"
        }
      ],
      "stateMutability": "view",
      "type": "function"
    },
    {
      "inputs": [
        {
          "internalType": "address",
          "name": "",
          "type": "address"
        }
      ],
      "name": "lastJackpotSeed",
      "outputs": [
        {
          "internalType": "uint256",
          "name": "",
          "type": "uint256"
        }
      ],
      "stateMutability": "view",
      "type": "function"
    },
    {
      "inputs": [
        {
          "internalType": "uint256",
          "name": "",
          "type": "uint256"
        }
      ],
      "name": "leaderboard",
      "outputs": [
        {
          "internalType": "address",
          "name": "",
          "type": "address"
        }
      ],
      "stateMutability": "view",
      "type": "function"
    },
    {
      "inputs": [
        {
          "internalType": "address",
          "name": "",
          "type": "address"
        }
      ],
      "name": "onLeaderboard",
      "outputs": [
        {
          "internalType": "bool",
          "name": "",
          "type": "bool"
        }
      ],
      "stateMutability": "view",
      "type": "function"
    },
    {
      "inputs": [],
      "name": "owner",
      "outputs": [
        {
          "internalType": "address",
          "name": "",
          "type": "address"
        }
      ],
      "stateMutability": "view",
      "type": "function"
    },
    {
      "inputs": [
        {
          "internalType": "address",
          "name": "",
          "type": "address"
        }
      ],
      "name": "pendingRewards",
      "outputs": [
        {
          "internalType": "uint256",
          "name": "",
          "type": "uint256"
        }
      ],
      "stateMutability": "view",
      "type": "function"
    },
    {
      "inputs": [],
      "name": "recordCrack",
      "outputs": [
        {
          "internalType": "uint256",
          "name": "reward",
          "type": "uint256"
        },
        {
          "internalType": "bool",
          "name": "isJackpot",
          "type": "bool"
        },
        {
          "internalType": "bool",
          "name": "isMilestoneWin",
          "type": "bool"
        },
        {
          "internalType": "uint8",
          "name": "streak",
          "type": "uint8"
        }
      ],
      "stateMutability": "nonpayable",
      "type": "function"
    },
    {
      "inputs": [],
      "name": "rewardToken",
      "outputs": [
        {
          "internalType": "contract EggCoin",
          "name": "",
          "type": "address"
        }
      ],
      "stateMutability": "view",
      "type": "function"
    },
    {
      "inputs": [
        {
          "internalType": "uint256",
          "name": "_chance",
          "type": "uint256"
        }
      ],
      "name": "setJackpotChance",
      "outputs": [],
      "stateMutability": "nonpayable",
      "type": "function"
    },
    {
      "inputs": [
        {
          "internalType": "address",
          "name": "",
          "type": "address"
        }
      ],
      "name": "streakCount",
      "outputs": [
        {
          "internalType": "uint256",
          "name": "",
          "type": "uint256"
        }
      ],
      "stateMutability": "view",
      "type": "function"
    },
    {
      "inputs": [],
      "name": "tokenAddress",
      "outputs": [
        {
          "internalType": "address",
          "name": "",
          "type": "address"
        }
      ],
      "stateMutability": "view",
      "type": "function"
    },
    {
      "inputs": [
        {
          "internalType": "address",
          "name": "",
          "type": "address"
        }
      ],
      "name": "totalCracks",
      "outputs": [
        {
          "internalType": "uint256",
          "name": "",
          "type": "uint256"
        }
      ],
      "stateMutability": "view",
      "type": "function"
    },
    {
      "inputs": [
        {
          "internalType": "address",
          "name": "",
          "type": "address"
        }
      ],
      "name": "totalEarned",
      "outputs": [
        {
          "internalType": "uint256",
          "name": "",
          "type": "uint256"
        }
      ],
      "stateMutability": "view",
      "type": "function"
    },
    {
      "inputs": [
        {
          "internalType": "address",
          "name": "newOwner",
          "type": "address"
        }
      ],
      "name": "transferOwnership",
      "outputs": [],
      "stateMutability": "nonpayable",
      "type": "function"
    }
  ],
  "bytecode": "0x608060405260326002553480156200001657600080fd5b50336000806101000a81548173ffffffffffffffffffffffffffffffffffffffff021916908373ffffffffffffffffffffffffffffffffffffffff160217905550600060405162000067906200013e565b604051809103906000f08015801562000084573d6000803e3d6000fd5b50905080600160006101000a81548173ffffffffffffffffffffffffffffffffffffffff021916908373ffffffffffffffffffffffffffffffffffffffff1602179055508073ffffffffffffffffffffffffffffffffffffffff1663fca3b5aa306040518263ffffffff1660e01b815260040162000103919062000191565b600060405180830381600087803b1580156200011e57600080fd5b505af115801562000133573d6000803e3d6000fd5b5050505050620001ae565b61160e8062001fca83390190565b600073ffffffffffffffffffffffffffffffffffffffff82169050919050565b600062000179826200014c565b9050919050565b6200018b816200016c565b82525050565b6000602082019050620001a8600083018462000180565b92915050565b611e0c80620001be6000396000f3fe608060405234801561001057600080fd5b50600436106101735760003560e01c80638da5cb5b116100de578063bf36839911610097578063ea16fb7811610071578063ea16fb781461046f578063eb8eebc8146104a0578063f2fde38b146104d0578063f7c618c1146104ec57610173565b8063bf36839914610403578063dd014c4b14610433578063e1c58e831461045157610173565b80638da5cb5b1461033f5780639d76ea581461035d578063b03381bc1461037b578063bae42234146103ab578063bcf64475146103c9578063bdf0f1aa146103e757610173565b80634e43603a116101305780634e43603a1461023c5780635b288e5d1461027057806363c0c0ee14610291578063649aca4a146102c15780636d763a6e146102f15780637a2348d61461030f57610173565b80630604ce271461017857806318d31b2d1461019657806322009af6146101c657806329741c95146101e457806331d7a26214610202578063372500ab14610232575b600080fd5b61018061050a565b60405161018d9190611561565b60405180910390f35b6101b060048036038101906101ab91906115df565b610510565b6040516101bd9190611561565b60405180910390f35b6101ce610528565b6040516101db9190611561565b60405180910390f35b6101ec610534565b6040516101f99190611561565b60405180910390f35b61021c600480360381019061021791906115df565b610539565b6040516102299190611561565b60405180910390f35b61023a610551565b005b610256600480360381019061025191906115df565b610715565b60405161026795949392919061160c565b60405180910390f35b6102786108cc565b6040516102889493929190611696565b60405180910390f35b6102ab60048036038101906102a691906115df565b611087565b6040516102b89190611561565b60405180910390f35b6102db60048036038101906102d691906115df565b61109f565b6040516102e89190611561565b60405180910390f35b6102f96110b7565b6040516103069190611799565b60405180910390f35b610329600480360381019061032491906115df565b611145565b60405161033691906117bb565b60405180910390f35b610347611165565b60405161035491906117e5565b60405180910390f35b610365611189565b60405161037291906117e5565b60405180910390f35b610395600480360381019061039091906115df565b6111b3565b6040516103a29190611561565b60405180910390f35b6103b36111cb565b6040516103c09190611561565b60405180910390f35b6103d16111d8565b6040516103de9190611561565b60405180910390f35b61040160048036038101906103fc919061182c565b6111e4565b005b61041d6004803603810190610418919061182c565b6112c0565b60405161042a91906117e5565b60405180910390f35b61043b6112ff565b6040516104489190611561565b60405180910390f35b61045961130b565b6040516104669190611561565b60405180910390f35b610489600480360381019061048491906115df565b611318565b604051610497929190611859565b60405180910390f35b6104ba60048036038101906104b591906115df565b6113a4565b6040516104c79190611561565b60405180910390f35b6104ea60048036038101906104e591906115df565b6113bc565b005b6104f461148d565b60405161050191906118e1565b60405180910390f35b60025481565b60036020528060005260406000206000915090505481565b678ac7230489e8000081565b606481565b60046020528060005260406000206000915090505481565b60003390506000600460008373ffffffffffffffffffffffffffffffffffffffff1673ffffffffffffffffffffffffffffffffffffffff168152602001908152602001600020549050600081116105dd576040517f08c379a00000000000000000000000000000000000000000000000000000000081526004016105d490611959565b60405180910390fd5b6000600460008473ffffffffffffffffffffffffffffffffffffffff1673ffffffffffffffffffffffffffffffffffffffff16815260200190815260200160002081905550600160009054906101000a900473ffffffffffffffffffffffffffffffffffffffff1673ffffffffffffffffffffffffffffffffffffffff1663a9059cbb83836040518363ffffffff1660e01b815260040161067f929190611979565b6020604051808303816000875af115801561069e573d6000803e3d6000fd5b505050506040513d601f19601f820116820180604052508101906106c291906119ce565b508173ffffffffffffffffffffffffffffffffffffffff167f106f923f993c2149d49b4255ff723acafa1f2d94393f561d3eda32ae348f7241826040516107099190611561565b60405180910390a25050565b6000806000806000600360008773ffffffffffffffffffffffffffffffffffffffff1673ffffffffffffffffffffffffffffffffffffffff16815260200190815260200160002054600460008873ffffffffffffffffffffffffffffffffffffffff1673ffffffffffffffffffffffffffffffffffffffff16815260200190815260200160002054600560008973ffffffffffffffffffffffffffffffffffffffff1673ffffffffffffffffffffffffffffffffffffffff16815260200190815260200160002054600760008a73ffffffffffffffffffffffffffffffffffffffff1673ffffffffffffffffffffffffffffffffffffffff16815260200190815260200160002054600160009054906101000a900473ffffffffffffffffffffffffffffffffffffffff1673ffffffffffffffffffffffffffffffffffffffff166370a082318b6040518263ffffffff1660e01b815260040161087891906117e5565b602060405180830381865afa158015610895573d6000803e3d6000fd5b505050506040513d601f19601f820116820180604052508101906108b99190611a10565b9450945094509450945091939590929450565b600080600080600033905060006108e16114b3565b90506000600660008473ffffffffffffffffffffffffffffffffffffffff1673ffffffffffffffffffffffffffffffffffffffff16815260200190815260200160002054905060008103610979576001600560008573ffffffffffffffffffffffffffffffffffffffff1673ffffffffffffffffffffffffffffffffffffffff16815260200190815260200160002081905550610a38565b80820315610a375760018161098e9190611a6c565b82036109f0576001600560008573ffffffffffffffffffffffffffffffffffffffff1673ffffffffffffffffffffffffffffffffffffffff16815260200190815260200160002060008282546109e49190611a6c565b92505081905550610a36565b6001600560008573ffffffffffffffffffffffffffffffffffffffff1673ffffffffffffffffffffffffffffffffffffffff168152602001908152602001600020819055505b5b5b81600660008573ffffffffffffffffffffffffffffffffffffffff1673ffffffffffffffffffffffffffffffffffffffff16815260200190815260200160002081905550600060ff600560008673ffffffffffffffffffffffffffffffffffffffff1673ffffffffffffffffffffffffffffffffffffffff1681526020019081526020016000205411610b0a57600560008573ffffffffffffffffffffffffffffffffffffffff1673ffffffffffffffffffffffffffffffffffffffff16815260200190815260200160002054610b0d565b60ff5b90508373ffffffffffffffffffffffffffffffffffffffff167f46f6fe577ecfefe55b0f14f0b42ddb4c22db1fb9bade43aa02c5ef4e5439512e82604051610b559190611ad1565b60405180910390a26001600360008673ffffffffffffffffffffffffffffffffffffffff1673ffffffffffffffffffffffffffffffffffffffff1681526020019081526020016000206000828254610bad9190611a6c565b925050819055506000600360008673ffffffffffffffffffffffffffffffffffffffff1673ffffffffffffffffffffffffffffffffffffffff168152602001908152602001600020549050678ac7230489e8000098508284141580610c125750600083145b15610c2e57674563918244f4000089610c2b9190611a6c565b98505b60018260ff161115610c8f576000600183610c499190611aec565b60ff16671bc16d674ec80000610c5f9190611b21565b90506801158e460913d00000811115610c7f576801158e460913d0000090505b808a610c8b9190611a6c565b9950505b610c98816114c9565b96508615610cb8576802b5e3af16b188000089610cb59190611a6c565b98505b6000610d0386600860008973ffffffffffffffffffffffffffffffffffffffff1673ffffffffffffffffffffffffffffffffffffffff1681526020019081526020016000205461150e565b905080600860008873ffffffffffffffffffffffffffffffffffffffff1673ffffffffffffffffffffffffffffffffffffffff16815260200190815260200160002081905550600060025482610d599190611b92565b1498508815610dd157680ad78ebc5ac62000008a610d779190611a6c565b99508573ffffffffffffffffffffffffffffffffffffffff167fbf737c87eff4ef74213cb228c9e25ca0c4519947f5fcc4a41b221ba93d76a425680ad78ebc5ac6200000604051610dc89190611561565b60405180910390a25b600160009054906101000a900473ffffffffffffffffffffffffffffffffffffffff1673ffffffffffffffffffffffffffffffffffffffff166340c10f19308c6040518363ffffffff1660e01b8152600401610e2e929190611979565b600060405180830381600087803b158015610e4857600080fd5b505af1158015610e5c573d6000803e3d6000fd5b5050505089600460008873ffffffffffffffffffffffffffffffffffffffff1673ffffffffffffffffffffffffffffffffffffffff1681526020019081526020016000206000828254610eaf9190611a6c565b9250508190555089600760008873ffffffffffffffffffffffffffffffffffffffff1673ffffffffffffffffffffffffffffffffffffffff1681526020019081526020016000206000828254610f059190611a6c565b92505081905550600a60008773ffffffffffffffffffffffffffffffffffffffff1673ffffffffffffffffffffffffffffffffffffffff16815260200190815260200160002060009054906101000a900460ff16611019576001600a60008873ffffffffffffffffffffffffffffffffffffffff1673ffffffffffffffffffffffffffffffffffffffff16815260200190815260200160002060006101000a81548160ff0219169083151502179055506009869080600181540180825580915050600190039060005260206000200160009091909190916101000a81548173ffffffffffffffffffffffffffffffffffffffff021916908373ffffffffffffffffffffffffffffffffffffffff1602179055505b8573ffffffffffffffffffffffffffffffffffffffff167f9070cc3fe9e99a06d619ff179c9c697f94dcf10b670ea629939de415f7ede84b838c8c8c88604051611067959493929190611bc3565b60405180910390a289898985995099509950995050505050505090919293565b60086020528060005260406000206000915090505481565b60076020528060005260406000206000915090505481565b6060600980548060200260200160405190810160405280929190818152602001828054801561113b57602002820191906000526020600020905b8160009054906101000a900473ffffffffffffffffffffffffffffffffffffffff1673ffffffffffffffffffffffffffffffffffffffff16815260200190600101908083116110f1575b5050505050905090565b600a6020528060005260406000206000915054906101000a900460ff1681565b60008054906101000a900473ffffffffffffffffffffffffffffffffffffffff1681565b6000600160009054906101000a900473ffffffffffffffffffffffffffffffffffffffff16905090565b60056020528060005260406000206000915090505481565b6802b5e3af16b188000081565b671bc16d674ec8000081565b60008054906101000a900473ffffffffffffffffffffffffffffffffffffffff1673ffffffffffffffffffffffffffffffffffffffff163373ffffffffffffffffffffffffffffffffffffffff1614611272576040517f08c379a000000000000000000000000000000000000000000000000000000000815260040161126990611c62565b60405180910390fd5b600a8110156112b6576040517f08c379a00000000000000000000000000000000000000000000000000000000081526004016112ad90611cce565b60405180910390fd5b8060028190555050565b600981815481106112d057600080fd5b906000526020600020016000915054906101000a900473ffffffffffffffffffffffffffffffffffffffff1681565b674563918244f4000081565b680ad78ebc5ac620000081565b600080600360008473ffffffffffffffffffffffffffffffffffffffff1673ffffffffffffffffffffffffffffffffffffffff16815260200190815260200160002054600760008573ffffffffffffffffffffffffffffffffffffffff1673ffffffffffffffffffffffffffffffffffffffff1681526020019081526020016000205491509150915091565b60066020528060005260406000206000915090505481565b60008054906101000a900473ffffffffffffffffffffffffffffffffffffffff1673ffffffffffffffffffffffffffffffffffffffff163373ffffffffffffffffffffffffffffffffffffffff161461144a576040517f08c379a000000000000000000000000000000000000000000000000000000000815260040161144190611c62565b60405180910390fd5b806000806101000a81548173ffffffffffffffffffffffffffffffffffffffff021916908373ffffffffffffffffffffffffffffffffffffffff16021790555050565b600160009054906101000a900473ffffffffffffffffffffffffffffffffffffffff1681565b600062015180426114c49190611cee565b905090565b6000600a8214806114da5750601982145b806114e55750603282145b806114f05750606482145b80611507575060006064836115059190611b92565b145b9050919050565b6000448383426040516020016115279493929190611d88565b6040516020818303038152906040528051906020012060001c905092915050565b6000819050919050565b61155b81611548565b82525050565b60006020820190506115766000830184611552565b92915050565b600080fd5b600073ffffffffffffffffffffffffffffffffffffffff82169050919050565b60006115ac82611581565b9050919050565b6115bc816115a1565b81146115c757600080fd5b50565b6000813590506115d9816115b3565b92915050565b6000602082840312156115f5576115f461157c565b5b6000611603848285016115ca565b91505092915050565b600060a0820190506116216000830188611552565b61162e6020830187611552565b61163b6040830186611552565b6116486060830185611552565b6116556080830184611552565b9695505050505050565b60008115159050919050565b6116748161165f565b82525050565b600060ff82169050919050565b6116908161167a565b82525050565b60006080820190506116ab6000830187611552565b6116b8602083018661166b565b6116c5604083018561166b565b6116d26060830184611687565b95945050505050565b600081519050919050565b600082825260208201905092915050565b6000819050602082019050919050565b611710816115a1565b82525050565b60006117228383611707565b60208301905092915050565b6000602082019050919050565b6000611746826116db565b61175081856116e6565b935061175b836116f7565b8060005b8381101561178c5781516117738882611716565b975061177e8361172e565b92505060018101905061175f565b5085935050505092915050565b600060208201905081810360008301526117b3818461173b565b905092915050565b60006020820190506117d0600083018461166b565b92915050565b6117df816115a1565b82525050565b60006020820190506117fa60008301846117d6565b92915050565b61180981611548565b811461181457600080fd5b50565b60008135905061182681611800565b92915050565b6000602082840312156118425761184161157c565b5b600061185084828501611817565b91505092915050565b600060408201905061186e6000830185611552565b61187b6020830184611552565b9392505050565b6000819050919050565b60006118a76118a261189d84611581565b611882565b611581565b9050919050565b60006118b98261188c565b9050919050565b60006118cb826118ae565b9050919050565b6118db816118c0565b82525050565b60006020820190506118f660008301846118d2565b92915050565b600082825260208201905092915050565b7f4e6f2070656e64696e6720726577617264730000000000000000000000000000600082015250565b60006119436012836118fc565b915061194e8261190d565b602082019050919050565b6000602082019050818103600083015261197281611936565b9050919050565b600060408201905061198e60008301856117d6565b61199b6020830184611552565b9392505050565b6119ab8161165f565b81146119b657600080fd5b50565b6000815190506119c8816119a2565b92915050565b6000602082840312156119e4576119e361157c565b5b60006119f2848285016119b9565b91505092915050565b600081519050611a0a81611800565b92915050565b600060208284031215611a2657611a2561157c565b5b6000611a34848285016119fb565b91505092915050565b7f4e487b7100000000000000000000000000000000000000000000000000000000600052601160045260246000fd5b6000611a7782611548565b9150611a8283611548565b9250828201905080821115611a9a57611a99611a3d565b5b92915050565b6000611abb611ab6611ab18461167a565b611882565b611548565b9050919050565b611acb81611aa0565b82525050565b6000602082019050611ae66000830184611ac2565b92915050565b6000611af78261167a565b9150611b028361167a565b9250828203905060ff811115611b1b57611b1a611a3d565b5b92915050565b6000611b2c82611548565b9150611b3783611548565b9250828202611b4581611548565b91508282048414831517611b5c57611b5b611a3d565b5b5092915050565b7f4e487b7100000000000000000000000000000000000000000000000000000000600052601260045260246000fd5b6000611b9d82611548565b9150611ba883611548565b925082611bb857611bb7611b63565b5b828206905092915050565b600060a082019050611bd86000830188611552565b611be56020830187611552565b611bf2604083018661166b565b611bff606083018561166b565b611c0c6080830184611687565b9695505050505050565b7f4e6f74206f776e65720000000000000000000000000000000000000000000000600082015250565b6000611c4c6009836118fc565b9150611c5782611c16565b602082019050919050565b60006020820190508181036000830152611c7b81611c3f565b9050919050565b7f546f6f206672657175656e740000000000000000000000000000000000000000600082015250565b6000611cb8600c836118fc565b9150611cc382611c82565b602082019050919050565b60006020820190508181036000830152611ce781611cab565b9050919050565b6000611cf982611548565b9150611d0483611548565b925082611d1457611d13611b63565b5b828204905092915050565b6000819050919050565b611d3a611d3582611548565b611d1f565b82525050565b60008160601b9050919050565b6000611d5882611d40565b9050919050565b6000611d6a82611d4d565b9050919050565b611d82611d7d826115a1565b611d5f565b82525050565b6000611d948287611d29565b602082019150611da48286611d71565b601482019150611db48285611d29565b602082019150611dc48284611d29565b6020820191508190509594505050505056fea2646970667358221220d13f6da5bddc12fbc3d252f27f6c03808564441cbce146bff629c2c3be3ec18464736f6c6343000814003360806040526040518060400160405280600781526020017f456767436f696e00000000000000000000000000000000000000000000000000815250600090816200004a91906200037d565b506040518060400160405280600381526020017f4547430000000000000000000000000000000000000000000000000000000000815250600190816200009191906200037d565b506012600260006101000a81548160ff021916908360ff160217905550348015620000bb57600080fd5b5033600460006101000a81548173ffffffffffffffffffffffffffffffffffffffff021916908373ffffffffffffffffffffffffffffffffffffffff16021790555062000464565b600081519050919050565b7f4e487b7100000000000000000000000000000000000000000000000000000000600052604160045260246000fd5b7f4e487b7100000000000000000000000000000000000000000000000000000000600052602260045260246000fd5b600060028204905060018216806200018557607f821691505b6020821081036200019b576200019a6200013d565b5b50919050565b60008190508160005260206000209050919050565b60006020601f8301049050919050565b600082821b905092915050565b600060088302620002057fffffffffffffffffffffffffffffffffffffffffffffffffffffffffffffffff82620001c6565b620002118683620001c6565b95508019841693508086168417925050509392505050565b6000819050919050565b6000819050919050565b60006200025e62000258620002528462000229565b62000233565b62000229565b9050919050565b6000819050919050565b6200027a836200023d565b62000292620002898262000265565b848454620001d3565b825550505050565b600090565b620002a96200029a565b620002b68184846200026f565b505050565b5b81811015620002de57620002d26000826200029f565b600181019050620002bc565b5050565b601f8211156200032d57620002f781620001a1565b6200030284620001b6565b8101602085101562000312578190505b6200032a6200032185620001b6565b830182620002bb565b50505b505050565b600082821c905092915050565b6000620003526000198460080262000332565b1980831691505092915050565b60006200036d83836200033f565b9150826002028217905092915050565b620003888262000103565b67ffffffffffffffff811115620003a457620003a36200010e565b5b620003b082546200016c565b620003bd828285620002e2565b600060209050601f831160018114620003f55760008415620003e0578287015190505b620003ec85826200035f565b8655506200045c565b601f1984166200040586620001a1565b60005b828110156200042f5784890151825560018201915060208501945060208101905062000408565b868310156200044f57848901516200044b601f8916826200033f565b8355505b6001600288020188555050505b505050505050565b61119a80620004746000396000f3fe608060405234801561001057600080fd5b50600436106100b45760003560e01c806340c10f191161007157806340c10f191461019157806370a08231146101ad57806395d89b41146101dd578063a9059cbb146101fb578063dd62ed3e1461022b578063fca3b5aa1461025b576100b4565b806306fdde03146100b957806307546172146100d7578063095ea7b3146100f557806318160ddd1461012557806323b872dd14610143578063313ce56714610173575b600080fd5b6100c1610277565b6040516100ce9190610cad565b60405180910390f35b6100df610305565b6040516100ec9190610d10565b60405180910390f35b61010f600480360381019061010a9190610d92565b61032b565b60405161011c9190610ded565b60405180910390f35b61012d61041d565b60405161013a9190610e17565b60405180910390f35b61015d60048036038101906101589190610e32565b610423565b60405161016a9190610ded565b60405180910390f35b61017b610715565b6040516101889190610ea1565b60405180910390f35b6101ab60048036038101906101a69190610d92565b610728565b005b6101c760048036038101906101c29190610ebc565b6108df565b6040516101d49190610e17565b60405180910390f35b6101e56108f7565b6040516101f29190610cad565b60405180910390f35b61021560048036038101906102109190610d92565b610985565b6040516102229190610ded565b60405180910390f35b61024560048036038101906102409190610ee9565b610b24565b6040516102529190610e17565b60405180910390f35b61027560048036038101906102709190610ebc565b610b49565b005b6000805461028490610f58565b80601f01602080910402602001604051908101604052809291908181526020018280546102b090610f58565b80156102fd5780601f106102d2576101008083540402835291602001916102fd565b820191906000526020600020905b8154815290600101906020018083116102e057829003601f168201915b505050505081565b600460009054906101000a900473ffffffffffffffffffffffffffffffffffffffff1681565b600081600660003373ffffffffffffffffffffffffffffffffffffffff1673ffffffffffffffffffffffffffffffffffffffff16815260200190815260200160002060008573ffffffffffffffffffffffffffffffffffffffff1673ffffffffffffffffffffffffffffffffffffffff168152602001908152602001600020819055508273ffffffffffffffffffffffffffffffffffffffff163373ffffffffffffffffffffffffffffffffffffffff167f8c5be1e5ebec7d5bd14f71427d1e84f3dd0314c0f7b2291e5b200ac8c7c3b9258460405161040b9190610e17565b60405180910390a36001905092915050565b60035481565b600081600560008673ffffffffffffffffffffffffffffffffffffffff1673ffffffffffffffffffffffffffffffffffffffff1681526020019081526020016000205410156104a7576040517f08c379a000000000000000000000000000000000000000000000000000000000815260040161049e90610fd5565b60405180910390fd5b81600660008673ffffffffffffffffffffffffffffffffffffffff1673ffffffffffffffffffffffffffffffffffffffff16815260200190815260200160002060003373ffffffffffffffffffffffffffffffffffffffff1673ffffffffffffffffffffffffffffffffffffffff168152602001908152602001600020541015610566576040517f08c379a000000000000000000000000000000000000000000000000000000000815260040161055d90611041565b60405180910390fd5b81600660008673ffffffffffffffffffffffffffffffffffffffff1673ffffffffffffffffffffffffffffffffffffffff16815260200190815260200160002060003373ffffffffffffffffffffffffffffffffffffffff1673ffffffffffffffffffffffffffffffffffffffff16815260200190815260200160002060008282546105f29190611090565b9250508190555081600560008673ffffffffffffffffffffffffffffffffffffffff1673ffffffffffffffffffffffffffffffffffffffff16815260200190815260200160002060008282546106489190611090565b9250508190555081600560008573ffffffffffffffffffffffffffffffffffffffff1673ffffffffffffffffffffffffffffffffffffffff168152602001908152602001600020600082825461069e91906110c4565b925050819055508273ffffffffffffffffffffffffffffffffffffffff168473ffffffffffffffffffffffffffffffffffffffff167fddf252ad1be2c89b69c2b068fc378daa952ba7f163c4a11628f55a4df523b3ef846040516107029190610e17565b60405180910390a3600190509392505050565b600260009054906101000a900460ff1681565b600460009054906101000a900473ffffffffffffffffffffffffffffffffffffffff1673ffffffffffffffffffffffffffffffffffffffff163373ffffffffffffffffffffffffffffffffffffffff16146107b8576040517f08c379a00000000000000000000000000000000000000000000000000000000081526004016107af90611144565b60405180910390fd5b80600360008282546107ca91906110c4565b9250508190555080600560008473ffffffffffffffffffffffffffffffffffffffff1673ffffffffffffffffffffffffffffffffffffffff168152602001908152602001600020600082825461082091906110c4565b925050819055508173ffffffffffffffffffffffffffffffffffffffff16600073ffffffffffffffffffffffffffffffffffffffff167fddf252ad1be2c89b69c2b068fc378daa952ba7f163c4a11628f55a4df523b3ef836040516108859190610e17565b60405180910390a38173ffffffffffffffffffffffffffffffffffffffff167f30385c845b448a36257a6a1716e6ad2e1bc2cbe333cde1e69fe849ad6511adfe826040516108d39190610e17565b60405180910390a25050565b60056020528060005260406000206000915090505481565b6001805461090490610f58565b80601f016020809104026020016040519081016040528092919081815260200182805461093090610f58565b801561097d5780601f106109525761010080835404028352916020019161097d565b820191906000526020600020905b81548152906001019060200180831161096057829003601f168201915b505050505081565b600081600560003373ffffffffffffffffffffffffffffffffffffffff1673ffffffffffffffffffffffffffffffffffffffff168152602001908152602001600020541015610a09576040517f08c379a0000000000000000000000000000000000000000000000000000000008152600401610a0090610fd5565b60405180910390fd5b81600560003373ffffffffffffffffffffffffffffffffffffffff1673ffffffffffffffffffffffffffffffffffffffff1681526020019081526020016000206000828254610a589190611090565b9250508190555081600560008573ffffffffffffffffffffffffffffffffffffffff1673ffffffffffffffffffffffffffffffffffffffff1681526020019081526020016000206000828254610aae91906110c4565b925050819055508273ffffffffffffffffffffffffffffffffffffffff163373ffffffffffffffffffffffffffffffffffffffff167fddf252ad1be2c89b69c2b068fc378daa952ba7f163c4a11628f55a4df523b3ef84604051610b129190610e17565b60405180910390a36001905092915050565b6006602052816000526040600020602052806000526040600020600091509150505481565b600460009054906101000a900473ffffffffffffffffffffffffffffffffffffffff1673ffffffffffffffffffffffffffffffffffffffff163373ffffffffffffffffffffffffffffffffffffffff1614610bd9576040517f08c379a0000000000000000000000000000000000000000000000000000000008152600401610bd090611144565b60405180910390fd5b80600460006101000a81548173ffffffffffffffffffffffffffffffffffffffff021916908373ffffffffffffffffffffffffffffffffffffffff16021790555050565b600081519050919050565b600082825260208201905092915050565b60005b83811015610c57578082015181840152602081019050610c3c565b60008484015250505050565b6000601f19601f8301169050919050565b6000610c7f82610c1d565b610c898185610c28565b9350610c99818560208601610c39565b610ca281610c63565b840191505092915050565b60006020820190508181036000830152610cc78184610c74565b905092915050565b600073ffffffffffffffffffffffffffffffffffffffff82169050919050565b6000610cfa82610ccf565b9050919050565b610d0a81610cef565b82525050565b6000602082019050610d256000830184610d01565b92915050565b600080fd5b610d3981610cef565b8114610d4457600080fd5b50565b600081359050610d5681610d30565b92915050565b6000819050919050565b610d6f81610d5c565b8114610d7a57600080fd5b50565b600081359050610d8c81610d66565b92915050565b60008060408385031215610da957610da8610d2b565b5b6000610db785828601610d47565b9250506020610dc885828601610d7d565b9150509250929050565b60008115159050919050565b610de781610dd2565b82525050565b6000602082019050610e026000830184610dde565b92915050565b610e1181610d5c565b82525050565b6000602082019050610e2c6000830184610e08565b92915050565b600080600060608486031215610e4b57610e4a610d2b565b5b6000610e5986828701610d47565b9350506020610e6a86828701610d47565b9250506040610e7b86828701610d7d565b9150509250925092565b600060ff82169050919050565b610e9b81610e85565b82525050565b6000602082019050610eb66000830184610e92565b92915050565b600060208284031215610ed257610ed1610d2b565b5b6000610ee084828501610d47565b91505092915050565b60008060408385031215610f0057610eff610d2b565b5b6000610f0e85828601610d47565b9250506020610f1f85828601610d47565b9150509250929050565b7f4e487b7100000000000000000000000000000000000000000000000000000000600052602260045260246000fd5b60006002820490506001821680610f7057607f821691505b602082108103610f8357610f82610f29565b5b50919050565b7f496e73756666696369656e742062616c616e6365000000000000000000000000600082015250565b6000610fbf601483610c28565b9150610fca82610f89565b602082019050919050565b60006020820190508181036000830152610fee81610fb2565b9050919050565b7f496e73756666696369656e7420616c6c6f77616e636500000000000000000000600082015250565b600061102b601683610c28565b915061103682610ff5565b602082019050919050565b6000602082019050818103600083015261105a8161101e565b9050919050565b7f4e487b7100000000000000000000000000000000000000000000000000000000600052601160045260246000fd5b600061109b82610d5c565b91506110a683610d5c565b92508282039050818111156110be576110bd611061565b5b92915050565b60006110cf82610d5c565b91506110da83610d5c565b92508282019050808211156110f2576110f1611061565b5b92915050565b7f4f6e6c79206d696e746572000000000000000000000000000000000000000000600082015250565b600061112e600b83610c28565b9150611139826110f8565b602082019050919050565b6000602082019050818103600083015261115d81611121565b905091905056fea2646970667358221220dd2e7e8b442d71b661fab0804c8567514003b8e264b20ebeb3dbc3d06e1112fb64736f6c63430008140033",
  "linkReferences": {},
  "deployedLinkReferences": {}
}